{
	"_format": "hh-sol-artifact-1",
	"contractName": "Deployer",
	"sourceName": "contracts/Deployer.sol",
	"abi": [
		{
			"inputs": [
				{
					"internalType": "address",
					"name": "_token",
					"type": "address"
				}
			],
			"stateMutability": "nonpayable",
			"type": "constructor"
		},
		{
			"anonymous": false,
			"inputs": [
				{
					"indexed": true,
					"internalType": "address",
					"name": "previousOwner",
					"type": "address"
				},
				{
					"indexed": true,
					"internalType": "address",
					"name": "newOwner",
					"type": "address"
				}
			],
			"name": "OwnershipTransferred",
			"type": "event"
		},
		{
			"anonymous": false,
			"inputs": [
				{
					"indexed": false,
					"internalType": "address",
					"name": "account",
					"type": "address"
				}
			],
			"name": "Paused",
			"type": "event"
		},
		{
			"anonymous": false,
			"inputs": [
				{
					"indexed": false,
					"internalType": "address",
					"name": "account",
					"type": "address"
				}
			],
			"name": "Unpaused",
			"type": "event"
		},
		{
			"inputs": [
				{
					"internalType": "string",
					"name": "projectId",
					"type": "string"
				},
				{
					"internalType": "uint256",
					"name": "_amount",
					"type": "uint256"
				},
				{
					"internalType": "uint256",
					"name": "_repay",
					"type": "uint256"
				}
			],
			"name": "deployProject",
			"outputs": [
				{
					"internalType": "address",
					"name": "",
					"type": "address"
				}
			],
			"stateMutability": "nonpayable",
			"type": "function"
		},
		{
			"inputs": [],
			"name": "owner",
			"outputs": [
				{
					"internalType": "address",
					"name": "",
					"type": "address"
				}
			],
			"stateMutability": "view",
			"type": "function"
		},
		{
			"inputs": [],
			"name": "pause",
			"outputs": [],
			"stateMutability": "nonpayable",
			"type": "function"
		},
		{
			"inputs": [],
			"name": "paused",
			"outputs": [
				{
					"internalType": "bool",
					"name": "",
					"type": "bool"
				}
			],
			"stateMutability": "view",
			"type": "function"
		},
		{
			"inputs": [
				{
					"internalType": "string",
					"name": "_projectId",
					"type": "string"
				}
			],
			"name": "projectAddress",
			"outputs": [
				{
					"internalType": "address",
					"name": "",
					"type": "address"
				}
			],
			"stateMutability": "view",
			"type": "function"
		},
		{
			"inputs": [],
			"name": "renounceOwnership",
			"outputs": [],
			"stateMutability": "nonpayable",
			"type": "function"
		},
		{
			"inputs": [
				{
					"internalType": "address",
					"name": "newOwner",
					"type": "address"
				}
			],
			"name": "transferOwnership",
			"outputs": [],
			"stateMutability": "nonpayable",
			"type": "function"
		},
		{
			"inputs": [],
			"name": "unpause",
			"outputs": [],
			"stateMutability": "nonpayable",
			"type": "function"
		}
	],
	"bytecode": "0x608060405234801561001057600080fd5b50604051611d07380380611d0783398101604081905261002f916100f9565b6000805460ff191690556100423361006b565b60018055600380546001600160a01b0319166001600160a01b0392909216919091179055610122565b600080546001600160a01b03838116610100818102610100600160a81b0319851617855560405193049190911692909183917f8be0079c531659141344cd1fd0a4f28419497f9722a3daafe3b4186f6b6457e091a35050565b60006001600160a01b0382165b92915050565b6100e0816100c4565b81146100eb57600080fd5b50565b80516100d1816100d7565b60006020828403121561010e5761010e600080fd5b600061011a84846100ee565b949350505050565b611bd6806101316000396000f3fe60806040523480156200001157600080fd5b5060043610620000935760003560e01c80638da5cb5b11620000625780638da5cb5b14620000d6578063dad41d1d14620000f7578063f2fde38b146200010e578063fb43c434146200012557600080fd5b80633f4ba83a14620000985780635c975abb14620000a4578063715018a614620000c25780638456cb5914620000cc575b600080fd5b620000a26200013c565b005b60005460ff16604051620000b991906200041e565b60405180910390f35b620000a262000152565b620000a262000168565b60005461010090046001600160a01b03165b604051620000b9919062000451565b620000e86200010836600462000594565b6200017c565b620000a26200011f36600462000620565b62000222565b620000e86200013636600462000645565b6200026c565b620001466200029f565b62000150620002d2565b565b6200015c6200029f565b62000150600062000322565b620001726200029f565b620001506200037b565b60035460405160009182918691869186916001600160a01b031690620001a29062000406565b620001b19493929190620006e8565b604051809103906000f080158015620001ce573d6000803e3d6000fd5b509050600081905080600287604051620001e9919062000758565b90815260405190819003602001902080546001600160a01b03929092166001600160a01b03199092169190911790559150509392505050565b6200022c6200029f565b6001600160a01b0381166200025e5760405162461bcd60e51b815260040162000255906200076d565b60405180910390fd5b620002698162000322565b50565b600060028260405162000280919062000758565b908152604051908190036020019020546001600160a01b031692915050565b6000546001600160a01b03610100909104163314620001505760405162461bcd60e51b81526004016200025590620007ed565b620002dc620003bb565b6000805460ff191690557f5db9ee0a495bf2e6ff9c91a7834c1ba4fdd244a5e8aa4e537bd38aeae4b073aa335b60405162000318919062000451565b60405180910390a1565b600080546001600160a01b03838116610100818102610100600160a81b0319851617855560405193049190911692909183917f8be0079c531659141344cd1fd0a4f28419497f9722a3daafe3b4186f6b6457e091a35050565b62000385620003e0565b6000805460ff191660011790557f62e78cea01bee320cd4e420270b5ea74000d11b0c9f74754ebdbfc544b05a258620003093390565b60005460ff16620001505760405162461bcd60e51b815260040162000255906200082b565b60005460ff1615620001505760405162461bcd60e51b8152600401620002559062000865565b611329806200087883390190565b8015155b82525050565b602081016200042e828462000414565b92915050565b60006001600160a01b0382166200042e565b620004188162000434565b602081016200042e828462000446565b634e487b7160e01b600052604160045260246000fd5b601f19601f830116810181811067ffffffffffffffff82111715620004a057620004a062000461565b6040525050565b6000620004b360405190565b9050620004c1828262000477565b919050565b600067ffffffffffffffff821115620004e357620004e362000461565b601f19601f83011660200192915050565b82818337506000910152565b6000620005176200051184620004c6565b620004a7565b905082815260208101848484011115620005345762000534600080fd5b62000541848285620004f4565b509392505050565b600082601f8301126200055f576200055f600080fd5b81356200057184826020860162000500565b949350505050565b805b81146200026957600080fd5b80356200042e8162000579565b600080600060608486031215620005ae57620005ae600080fd5b833567ffffffffffffffff811115620005ca57620005ca600080fd5b620005d88682870162000549565b9350506020620005eb8682870162000587565b9250506040620005fe8682870162000587565b9150509250925092565b6200057b8162000434565b80356200042e8162000608565b600060208284031215620006375762000637600080fd5b600062000571848462000613565b6000602082840312156200065c576200065c600080fd5b813567ffffffffffffffff811115620006785762000678600080fd5b620005718482850162000549565b60005b83811015620006a357818101518382015260200162000689565b50506000910152565b6000620006b7825190565b808452602084019350620006d081856020860162000686565b601f01601f19169290920192915050565b8062000418565b60808082528101620006fb8187620006ac565b90506200070c6020830186620006e1565b6200071b6040830185620006e1565b6200072a606083018462000446565b95945050505050565b60006200073e825190565b6200074e81856020860162000686565b9290920192915050565b600062000766828462000733565b9392505050565b602080825281016200042e81602681527f4f776e61626c653a206e6577206f776e657220697320746865207a65726f206160208201526564647265737360d01b604082015260600190565b60208082527f4f776e61626c653a2063616c6c6572206973206e6f7420746865206f776e6572910190815260005b5060200190565b602080825281016200042e81620007b8565b601481526000602082017314185d5cd8589b194e881b9bdd081c185d5cd95960621b81529150620007e6565b602080825281016200042e81620007ff565b601081526000602082016f14185d5cd8589b194e881c185d5cd95960821b81529150620007e6565b602080825281016200042e816200083d56fe60c06040523480156200001157600080fd5b506040516200132938038062001329833981016040819052620000349162000262565b6000805460ff1916905562000049336200008b565b6001805560036200005b8582620003e8565b5060809290925260a052600480546001600160a01b0319166001600160a01b0390921691909117905550620004b8565b600080546001600160a01b03838116610100818102610100600160a81b0319851617855560405193049190911692909183917f8be0079c531659141344cd1fd0a4f28419497f9722a3daafe3b4186f6b6457e091a35050565b634e487b7160e01b600052604160045260246000fd5b601f19601f83011681018181106001600160401b0382111715620001225762000122620000e4565b6040525050565b60006200013560405190565b9050620001438282620000fa565b919050565b60006001600160401b03821115620001645762000164620000e4565b601f19601f83011660200192915050565b60005b838110156200019257818101518382015260200162000178565b50506000910152565b6000620001b2620001ac8462000148565b62000129565b905082815260208101848484011115620001cf57620001cf600080fd5b620001dc84828562000175565b509392505050565b600082601f830112620001fa57620001fa600080fd5b81516200020c8482602086016200019b565b949350505050565b805b81146200022257600080fd5b50565b8051620002328162000214565b92915050565b60006001600160a01b03821662000232565b620002168162000238565b805162000232816200024a565b600080600080608085870312156200027d576200027d600080fd5b84516001600160401b03811115620002985762000298600080fd5b620002a687828801620001e4565b9450506020620002b98782880162000225565b9350506040620002cc8782880162000225565b9250506060620002df8782880162000255565b91505092959194509250565b634e487b7160e01b600052602260045260246000fd5b6002810460018216806200031657607f821691505b6020821081036200032b576200032b620002eb565b50919050565b6000620002326200033f8381565b90565b6200034d8362000331565b81546008840282811b60001990911b908116901990911617825550505050565b60006200037c81848462000342565b505050565b81811015620003a057620003976000826200036d565b60010162000381565b5050565b601f8211156200037c576000818152602090206020601f85010481016020851015620003cd5750805b620003e16020601f86010483018262000381565b5050505050565b81516001600160401b03811115620004045762000404620000e4565b62000410825462000301565b6200041d828285620003a4565b6020601f8311600181146200045457600084156200043b5750858201515b600019600886021c1981166002860217865550620004b0565b600085815260208120601f198616915b8281101562000486578885015182556020948501946001909201910162000464565b86831015620004a35784890151600019601f89166008021c191682555b6001600288020188555050505b505050505050565b60805160a051610e44620004e5600039600081816102dc01526103a70152600061063f0152610e446000f3fe608060405234801561001057600080fd5b50600436106100a95760003560e01c80635c975abb116100715780635c975abb146100ee578063715018a6146101015780638456cb59146101095780638da5cb5b14610111578063b6b55f251461012f578063f2fde38b1461014257600080fd5b80631270e10c146100ae5780633f4ba83a146100cc5780633fafa127146100d6578063402d8883146100de5780634e71d92d146100e6575b600080fd5b6100b6610155565b6040516100c39190610989565b60405180910390f35b6100d46101e7565b005b6100b66101f9565b6100d4610287565b6100d4610435565b60005460ff166040516100c391906109ab565b6100d461058a565b6100d461059c565b60005461010090046001600160a01b03166040516100c391906109d9565b6100d461013d3660046109ff565b6105ac565b6100d4610150366004610a3c565b61077c565b60606003805461016490610a73565b80601f016020809104026020016040519081016040528092919081815260200182805461019090610a73565b80156101dd5780601f106101b2576101008083540402835291602001916101dd565b820191906000526020600020905b8154815290600101906020018083116101c057829003601f168201915b5050505050905090565b6101ef6107b3565b6101f76107e3565b565b6003805461020690610a73565b80601f016020809104026020016040519081016040528092919081815260200182805461023290610a73565b801561027f5780601f106102545761010080835404028352916020019161027f565b820191906000526020600020905b81548152906001019060200180831161026257829003601f168201915b505050505081565b61028f61082f565b610297610852565b600454600160a01b900460ff166102c95760405162461bcd60e51b81526004016102c090610acf565b60405180910390fd5b60048054604051636eb1769f60e11b81527f0000000000000000000000000000000000000000000000000000000000000000926001600160a01b039092169163dd62ed3e9161031c913391309101610adf565b602060405180830381865afa158015610339573d6000803e3d6000fd5b505050506040513d601f19601f8201168201806040525081019061035d9190610b05565b1461037a5760405162461bcd60e51b81526004016102c090610b5a565b600480546040516323b872dd60e01b81526001600160a01b03909116916323b872dd916103cd91339130917f00000000000000000000000000000000000000000000000000000000000000009101610b70565b6020604051808303816000875af11580156103ec573d6000803e3d6000fd5b505050506040513d601f19601f820116820180604052508101906104109190610bab565b60048054911515600160a01b0260ff60a01b199092169190911790556101f760018055565b61043d61082f565b610445610852565b33600090815260026020818152604092839020835160a08101855281546001600160a01b0316815260018201549281019290925291820154928101929092526003015460ff808216151560608401526101009091041615801560808301526104bf5760405162461bcd60e51b81526004016102c090610bf9565b3360008181526002602052604090819020600301805461ff0019166101001790556004805484830151925163a9059cbb60e01b81526001600160a01b03919091169363a9059cbb93610515939192909101610c09565b6020604051808303816000875af1158015610534573d6000803e3d6000fd5b505050506040513d601f19601f820116820180604052508101906105589190610bab565b33600090815260026020526040902060030180549115156101000261ff0019909216919091179055506101f760018055565b6105926107b3565b6101f7600061087b565b6105a46107b3565b6101f76108d4565b6105b461082f565b6105bc610852565b60048054604051636eb1769f60e11b81526000926001600160a01b039092169163dd62ed3e916105f0913391309101610adf565b602060405180830381865afa15801561060d573d6000803e3d6000fd5b505050506040513d601f19601f820116820180604052508101906106319190610b05565b905061063d8147610c3a565b7f0000000000000000000000000000000000000000000000000000000000000000111561067c5760405162461bcd60e51b81526004016102c090610c81565b8181101561069c5760405162461bcd60e51b81526004016102c090610cbc565b600480546040516323b872dd60e01b81526000926001600160a01b03909216916323b872dd916106d29133913091899101610b70565b6020604051808303816000875af11580156106f1573d6000803e3d6000fd5b505050506040513d601f19601f820116820180604052508101906107159190610bab565b9050801561076e5733600081815260026020526040812080546001600160a01b031916909217825560019091018054849290610752908490610c3a565b9091555050336000908152600260208190526040909120018390555b505061077960018055565b50565b6107846107b3565b6001600160a01b0381166107aa5760405162461bcd60e51b81526004016102c090610ccc565b6107798161087b565b6000546001600160a01b036101009091041633146101f75760405162461bcd60e51b81526004016102c090610d48565b6107eb610911565b6000805460ff191690557f5db9ee0a495bf2e6ff9c91a7834c1ba4fdd244a5e8aa4e537bd38aeae4b073aa335b60405161082591906109d9565b60405180910390a1565b60005460ff16156101f75760405162461bcd60e51b81526004016102c090610d7f565b6002600154036108745760405162461bcd60e51b81526004016102c090610dc3565b6002600155565b600080546001600160a01b03838116610100818102610100600160a81b0319851617855560405193049190911692909183917f8be0079c531659141344cd1fd0a4f28419497f9722a3daafe3b4186f6b6457e091a35050565b6108dc61082f565b6000805460ff191660011790557f62e78cea01bee320cd4e420270b5ea74000d11b0c9f74754ebdbfc544b05a2586108183390565b60005460ff166101f75760405162461bcd60e51b81526004016102c090610dfe565b60005b8381101561094e578181015183820152602001610936565b50506000910152565b6000610961825190565b808452602084019350610978818560208601610933565b601f01601f19169290920192915050565b6020808252810161099a8184610957565b9392505050565b8015155b82525050565b602081016109b982846109a1565b92915050565b60006001600160a01b0382166109b9565b6109a5816109bf565b602081016109b982846109d0565b805b811461077957600080fd5b80356109b9816109e7565b600060208284031215610a1457610a14600080fd5b6000610a2084846109f4565b949350505050565b6109e9816109bf565b80356109b981610a28565b600060208284031215610a5157610a51600080fd5b6000610a208484610a31565b634e487b7160e01b600052602260045260246000fd5b600281046001821680610a8757607f821691505b602082108103610a9957610a99610a5d565b50919050565b60168152600060208201751c1c9bda9958dd08185b1c9958591e481c995c185a5960521b815291505b5060200190565b602080825281016109b981610a9f565b60408101610aed82856109d0565b61099a60208301846109d0565b80516109b9816109e7565b600060208284031215610b1a57610b1a600080fd5b6000610a208484610afa565b601881526000602082017f496e76616c69642072657061796d656e7420616d6f756e74000000000000000081529150610ac8565b602080825281016109b981610b26565b806109a5565b60608101610b7e82866109d0565b610b8b60208301856109d0565b610a206040830184610b6a565b8015156109e9565b80516109b981610b98565b600060208284031215610bc057610bc0600080fd5b6000610a208484610ba0565b601681526000602082017518dbdb9d1c9858dd081a185cc81899595b881c185a5960521b81529150610ac8565b602080825281016109b981610bcc565b60408101610c1782856109d0565b61099a6020830184610b6a565b634e487b7160e01b600052601160045260246000fd5b808201808211156109b9576109b9610c24565b601d81526000602082017f6465706f736974206578636565647320616d6f756e74206e656564656400000081529150610ac8565b602080825281016109b981610c4d565b6014815260006020820173105c1c1c9bdd99481c9a59da1d08185b5bdd5b9d60621b81529150610ac8565b602080825281016109b981610c91565b602080825281016109b981602681527f4f776e61626c653a206e6577206f776e657220697320746865207a65726f206160208201526564647265737360d01b604082015260600190565b60208082527f4f776e61626c653a2063616c6c6572206973206e6f7420746865206f776e657291019081526000610ac8565b602080825281016109b981610d16565b601081526000602082016f14185d5cd8589b194e881c185d5cd95960821b81529150610ac8565b602080825281016109b981610d58565b601f81526000602082017f5265656e7472616e637947756172643a207265656e7472616e742063616c6c0081529150610ac8565b602080825281016109b981610d8f565b601481526000602082017314185d5cd8589b194e881b9bdd081c185d5cd95960621b81529150610ac8565b602080825281016109b981610dd356fea26469706673582212203826a02cf440f7d1c2b954a1cb1b6cb69f78c5989eae7bfbeb2f340354e2634164736f6c63430008110033a264697066735822122027a588c9bcdec89519aa9805d9d5a819ac1464901e258a50beddb4558abdfbf564736f6c63430008110033",
	"linkReferences": {},
	"deployedLinkReferences": {}
}