{
	"_format": "hh-sol-artifact-1",
	"contractName": "Deployer",
	"sourceName": "contracts/Deployer.sol",
	"abi": [
		{
			"inputs": [
				{
					"internalType": "address",
					"name": "_token",
					"type": "address"
				}
			],
			"stateMutability": "nonpayable",
			"type": "constructor"
		},
		{
			"anonymous": false,
			"inputs": [
				{
					"indexed": true,
					"internalType": "address",
					"name": "previousOwner",
					"type": "address"
				},
				{
					"indexed": true,
					"internalType": "address",
					"name": "newOwner",
					"type": "address"
				}
			],
			"name": "OwnershipTransferred",
			"type": "event"
		},
		{
			"anonymous": false,
			"inputs": [
				{
					"indexed": false,
					"internalType": "address",
					"name": "account",
					"type": "address"
				}
			],
			"name": "Paused",
			"type": "event"
		},
		{
			"anonymous": false,
			"inputs": [
				{
					"indexed": false,
					"internalType": "address",
					"name": "account",
					"type": "address"
				}
			],
			"name": "Unpaused",
			"type": "event"
		},
		{
			"inputs": [
				{
					"internalType": "string",
					"name": "projectId",
					"type": "string"
				},
				{
					"internalType": "uint256",
					"name": "_amount",
					"type": "uint256"
				},
				{
					"internalType": "uint256",
					"name": "_repay",
					"type": "uint256"
				}
			],
			"name": "deployProject",
			"outputs": [
				{
					"internalType": "address",
					"name": "",
					"type": "address"
				}
			],
			"stateMutability": "nonpayable",
			"type": "function"
		},
		{
			"inputs": [],
			"name": "emptyBalance",
			"outputs": [],
			"stateMutability": "nonpayable",
			"type": "function"
		},
		{
			"inputs": [],
			"name": "owner",
			"outputs": [
				{
					"internalType": "address",
					"name": "",
					"type": "address"
				}
			],
			"stateMutability": "view",
			"type": "function"
		},
		{
			"inputs": [],
			"name": "pause",
			"outputs": [],
			"stateMutability": "nonpayable",
			"type": "function"
		},
		{
			"inputs": [],
			"name": "paused",
			"outputs": [
				{
					"internalType": "bool",
					"name": "",
					"type": "bool"
				}
			],
			"stateMutability": "view",
			"type": "function"
		},
		{
			"inputs": [
				{
					"internalType": "string",
					"name": "_projectId",
					"type": "string"
				}
			],
			"name": "projectAddress",
			"outputs": [
				{
					"internalType": "address",
					"name": "",
					"type": "address"
				}
			],
			"stateMutability": "view",
			"type": "function"
		},
		{
			"inputs": [],
			"name": "renounceOwnership",
			"outputs": [],
			"stateMutability": "nonpayable",
			"type": "function"
		},
		{
			"inputs": [
				{
					"internalType": "address",
					"name": "newOwner",
					"type": "address"
				}
			],
			"name": "transferOwnership",
			"outputs": [],
			"stateMutability": "nonpayable",
			"type": "function"
		},
		{
			"inputs": [],
			"name": "unpause",
			"outputs": [],
			"stateMutability": "nonpayable",
			"type": "function"
		},
		{
			"inputs": [
				{
					"internalType": "address",
					"name": "_from",
					"type": "address"
				},
				{
					"internalType": "address",
					"name": "_to",
					"type": "address"
				}
			],
			"name": "withdrawBalance",
			"outputs": [
				{
					"internalType": "bool",
					"name": "",
					"type": "bool"
				}
			],
			"stateMutability": "nonpayable",
			"type": "function"
		},
		{
			"stateMutability": "payable",
			"type": "receive"
		}
	],
	"bytecode": "0x608060405234801561001057600080fd5b5060405161234338038061234383398101604081905261002f916100f9565b6000805460ff191690556100423361006b565b60018055600380546001600160a01b0319166001600160a01b0392909216919091179055610122565b600080546001600160a01b03838116610100818102610100600160a81b0319851617855560405193049190911692909183917f8be0079c531659141344cd1fd0a4f28419497f9722a3daafe3b4186f6b6457e091a35050565b60006001600160a01b0382165b92915050565b6100e0816100c4565b81146100eb57600080fd5b50565b80516100d1816100d7565b60006020828403121561010e5761010e600080fd5b600061011a84846100ee565b949350505050565b612212806101316000396000f3fe608060405260043610620000c35760003560e01c80638456cb591162000071578063dad41d1d1162000054578063dad41d1d14620001b8578063f2fde38b14620001dd578063fb43c434146200020257600080fd5b80638456cb5914620001715780638da5cb5b146200018957600080fd5b80635a4ff67911620000a65780635a4ff67914620001275780635c975abb146200013f578063715018a6146200015957600080fd5b806315a269f714620000d05780633f4ba83a146200010d57600080fd5b36620000cb57005b600080fd5b348015620000dd57600080fd5b50620000f5620000ef3660046200064f565b62000227565b6040516200010491906200069c565b60405180910390f35b3480156200011a57600080fd5b5062000125620002cc565b005b3480156200013457600080fd5b5062000125620002e2565b3480156200014c57600080fd5b5060005460ff16620000f5565b3480156200016657600080fd5b50620001256200031c565b3480156200017e57600080fd5b506200012562000332565b3480156200019657600080fd5b5060005461010090046001600160a01b03165b604051620001049190620006b7565b348015620001c557600080fd5b50620001a9620001d736600462000804565b62000346565b348015620001ea57600080fd5b5062000125620001fc36600462000878565b62000413565b3480156200020f57600080fd5b50620001a9620002213660046200089d565b6200045a565b6000620002336200048d565b6040517f1fadb62800000000000000000000000000000000000000000000000000000000815283906001600160a01b03821690631fadb628906200027c908690600401620006b7565b6020604051808303816000875af11580156200029c573d6000803e3d6000fd5b505050506040513d601f19601f82011682018060405250810190620002c29190620008f4565b9150505b92915050565b620002d66200048d565b620002e0620004c0565b565b620002ec6200048d565b60405133904780156108fc02916000818181858888f1935050505015801562000319573d6000803e3d6000fd5b50565b620003266200048d565b620002e0600062000510565b6200033c6200048d565b620002e062000580565b6000620003526200048d565b6000848484600360009054906101000a90046001600160a01b03166040516200037b906200060b565b6200038a94939291906200097b565b604051809103906000f080158015620003a7573d6000803e3d6000fd5b509050600081905080600287604051620003c29190620009eb565b90815260405190819003602001902080546001600160a01b03929092167fffffffffffffffffffffffff00000000000000000000000000000000000000009092169190911790559150509392505050565b6200041d6200048d565b6001600160a01b0381166200044f5760405162461bcd60e51b8152600401620004469062000a00565b60405180910390fd5b620003198162000510565b60006002826040516200046e9190620009eb565b908152604051908190036020019020546001600160a01b031692915050565b6000546001600160a01b03610100909104163314620002e05760405162461bcd60e51b8152600401620004469062000a97565b620004ca620005c0565b6000805460ff191690557f5db9ee0a495bf2e6ff9c91a7834c1ba4fdd244a5e8aa4e537bd38aeae4b073aa335b604051620005069190620006b7565b60405180910390a1565b600080546001600160a01b038381166101008181027fffffffffffffffffffffff0000000000000000000000000000000000000000ff851617855560405193049190911692909183917f8be0079c531659141344cd1fd0a4f28419497f9722a3daafe3b4186f6b6457e091a35050565b6200058a620005e5565b6000805460ff191660011790557f62e78cea01bee320cd4e420270b5ea74000d11b0c9f74754ebdbfc544b05a258620004f73390565b60005460ff16620002e05760405162461bcd60e51b8152600401620004469062000ade565b60005460ff1615620002e05760405162461bcd60e51b8152600401620004469062000b25565b6116a58062000b3883390190565b60006001600160a01b038216620002c6565b620006368162000619565b81146200031957600080fd5b8035620002c6816200062b565b60008060408385031215620006675762000667600080fd5b600062000675858562000642565b9250506020620006888582860162000642565b9150509250929050565b8015155b82525050565b60208101620002c6828462000692565b620006968162000619565b60208101620002c68284620006ac565b7f4e487b7100000000000000000000000000000000000000000000000000000000600052604160045260246000fd5b601f19601f830116810181811067ffffffffffffffff821117156200071f576200071f620006c7565b6040525050565b60006200073260405190565b9050620007408282620006f6565b919050565b600067ffffffffffffffff821115620007625762000762620006c7565b601f19601f83011660200192915050565b82818337506000910152565b600062000796620007908462000745565b62000726565b905082815260208101848484011115620007b357620007b3600080fd5b620007c084828562000773565b509392505050565b600082601f830112620007de57620007de600080fd5b8135620002c28482602086016200077f565b8062000636565b8035620002c681620007f0565b6000806000606084860312156200081e576200081e600080fd5b833567ffffffffffffffff8111156200083a576200083a600080fd5b6200084886828701620007c8565b93505060206200085b86828701620007f7565b92505060406200086e86828701620007f7565b9150509250925092565b6000602082840312156200088f576200088f600080fd5b6000620002c2848462000642565b600060208284031215620008b457620008b4600080fd5b813567ffffffffffffffff811115620008d057620008d0600080fd5b620002c284828501620007c8565b80151562000636565b8051620002c681620008de565b6000602082840312156200090b576200090b600080fd5b6000620002c28484620008e7565b60005b83811015620009365781810151838201526020016200091c565b50506000910152565b60006200094a825190565b8084526020840193506200096381856020860162000919565b601f01601f19169290920192915050565b8062000696565b608080825281016200098e81876200093f565b90506200099f602083018662000974565b620009ae604083018562000974565b620009bd6060830184620006ac565b95945050505050565b6000620009d1825190565b620009e181856020860162000919565b9290920192915050565b6000620009f98284620009c6565b9392505050565b60208082528101620002c681602681527f4f776e61626c653a206e6577206f776e657220697320746865207a65726f206160208201527f6464726573730000000000000000000000000000000000000000000000000000604082015260600190565b60208082527f4f776e61626c653a2063616c6c6572206973206e6f7420746865206f776e6572910190815260005b5060200190565b60208082528101620002c68162000a62565b601481526000602082017f5061757361626c653a206e6f74207061757365640000000000000000000000008152915062000a90565b60208082528101620002c68162000aa9565b601081526000602082017f5061757361626c653a20706175736564000000000000000000000000000000008152915062000a90565b60208082528101620002c68162000af056fe60c060405260006005553480156200001657600080fd5b50604051620016a5380380620016a5833981016040819052620000399162000267565b6000805460ff191690556200004e3362000090565b600180556003620000608582620003ed565b5060809290925260a052600480546001600160a01b0319166001600160a01b0390921691909117905550620004bd565b600080546001600160a01b03838116610100818102610100600160a81b0319851617855560405193049190911692909183917f8be0079c531659141344cd1fd0a4f28419497f9722a3daafe3b4186f6b6457e091a35050565b634e487b7160e01b600052604160045260246000fd5b601f19601f83011681018181106001600160401b0382111715620001275762000127620000e9565b6040525050565b60006200013a60405190565b9050620001488282620000ff565b919050565b60006001600160401b03821115620001695762000169620000e9565b601f19601f83011660200192915050565b60005b83811015620001975781810151838201526020016200017d565b50506000910152565b6000620001b7620001b1846200014d565b6200012e565b905082815260208101848484011115620001d457620001d4600080fd5b620001e18482856200017a565b509392505050565b600082601f830112620001ff57620001ff600080fd5b815162000211848260208601620001a0565b949350505050565b805b81146200022757600080fd5b50565b8051620002378162000219565b92915050565b60006001600160a01b03821662000237565b6200021b816200023d565b805162000237816200024f565b60008060008060808587031215620002825762000282600080fd5b84516001600160401b038111156200029d576200029d600080fd5b620002ab87828801620001e9565b9450506020620002be878288016200022a565b9350506040620002d1878288016200022a565b9250506060620002e4878288016200025a565b91505092959194509250565b634e487b7160e01b600052602260045260246000fd5b6002810460018216806200031b57607f821691505b602082108103620003305762000330620002f0565b50919050565b600062000237620003448381565b90565b620003528362000336565b81546008840282811b60001990911b908116901990911617825550505050565b60006200038181848462000347565b505050565b81811015620003a5576200039c60008262000372565b60010162000386565b5050565b601f82111562000381576000818152602090206020601f85010481016020851015620003d25750805b620003e66020601f86010483018262000386565b5050505050565b81516001600160401b03811115620004095762000409620000e9565b62000415825462000306565b62000422828285620003a9565b6020601f831160018114620004595760008415620004405750858201515b600019600886021c1981166002860217865550620004b5565b600085815260208120601f198616915b828110156200048b578885015182556020948501946001909201910162000469565b86831015620004a85784890151600019601f89166008021c191682555b6001600288020188555050505b505050505050565b60805160a0516111b4620004f1600039600081816104b00152818161057b015261069c0152600061090b01526111b46000f3fe6080604052600436106100e15760003560e01c80635a4ff6791161007f5780638456cb59116100595780638456cb59146102005780638da5cb5b14610215578063b6b55f2514610240578063f2fde38b1461026057600080fd5b80635a4ff679146101be5780635c975abb146101d3578063715018a6146101eb57600080fd5b80633fafa127116100bb5780633fafa1271461015c578063402d8883146101715780634e71d92d14610186578063588ee29b1461019b57600080fd5b80631270e10c146100ed5780631fadb628146101185780633f4ba83a1461014557600080fd5b366100e857005b600080fd5b3480156100f957600080fd5b50610102610280565b60405161010f9190610c70565b60405180910390f35b34801561012457600080fd5b50610138610133366004610cba565b610312565b60405161010f9190610ced565b34801561015157600080fd5b5061015a6103c2565b005b34801561016857600080fd5b506101026103d4565b34801561017d57600080fd5b5061015a610462565b34801561019257600080fd5b5061015a6105fb565b3480156101a757600080fd5b506101b06107a3565b60405161010f929190610d01565b3480156101ca57600080fd5b5061015a610829565b3480156101df57600080fd5b5060005460ff16610138565b3480156101f757600080fd5b5061015a610860565b34801561020c57600080fd5b5061015a610872565b34801561022157600080fd5b5060005461010090046001600160a01b031660405161010f9190610d25565b34801561024c57600080fd5b5061015a61025b366004610d44565b610882565b34801561026c57600080fd5b5061015a61027b366004610cba565b610a4c565b60606003805461028f90610d7b565b80601f01602080910402602001604051908101604052809291908181526020018280546102bb90610d7b565b80156103085780601f106102dd57610100808354040283529160200191610308565b820191906000526020600020905b8154815290600101906020018083116102eb57829003601f168201915b5050505050905090565b600061031c610a83565b610324610ab3565b6004805460055460405163a9059cbb60e01b81526001600160a01b039092169263a9059cbb92610358928792909101610da7565b6020604051808303816000875af1158015610377573d6000803e3d6000fd5b505050506040513d601f19601f8201168201806040525081019061039b9190610dc8565b6006805461ff001916610100921515830217908190556001805560ff919004169050919050565b6103ca610a83565b6103d2610adc565b565b600380546103e190610d7b565b80601f016020809104026020016040519081016040528092919081815260200182805461040d90610d7b565b801561045a5780601f1061042f5761010080835404028352916020019161045a565b820191906000526020600020905b81548152906001019060200180831161043d57829003601f168201915b505050505081565b61046a610b28565b610472610ab3565b60065460ff1661049d5760405162461bcd60e51b815260040161049490610e20565b60405180910390fd5b60048054604051636eb1769f60e11b81527f0000000000000000000000000000000000000000000000000000000000000000926001600160a01b039092169163dd62ed3e916104f0913391309101610e30565b602060405180830381865afa15801561050d573d6000803e3d6000fd5b505050506040513d601f19601f820116820180604052508101906105319190610e56565b0361054e5760405162461bcd60e51b815260040161049490610eab565b600480546040516323b872dd60e01b81526001600160a01b03909116916323b872dd916105a191339130917f00000000000000000000000000000000000000000000000000000000000000009101610ebb565b6020604051808303816000875af11580156105c0573d6000803e3d6000fd5b505050506040513d601f19601f820116820180604052508101906105e49190610dc8565b6006805460ff191691151591909117905560018055565b610603610b28565b61060b610ab3565b33600090815260026020818152604092839020835160a08101855281546001600160a01b0316815260018201549281019290925291820154928101929092526003015460ff808216151560608401526101009091048116151560808301526006541615801561067c57508060800151155b6106985760405162461bcd60e51b815260040161049490610f40565b60007f000000000000000000000000000000000000000000000000000000000000000060055483602001516106cd9190610f7c565b6106d79190610f90565b3360008181526002602052604090819020600301805461ff00191661010017905560048054915163a9059cbb60e01b81529394506001600160a01b03919091169263a9059cbb9261072c929091869101610da7565b6020604051808303816000875af115801561074b573d6000803e3d6000fd5b505050506040513d601f19601f8201168201806040525081019061076f9190610dc8565b33600090815260026020526040902060030180549115156101000261ff0019909216919091179055506103d2905060018055565b60065460048054604051636eb1769f60e11b8152600093849360ff909116926001600160a01b03169163dd62ed3e916107e0913391309101610e30565b602060405180830381865afa1580156107fd573d6000803e3d6000fd5b505050506040513d601f19601f820116820180604052508101906108219190610e56565b915091509091565b610831610a83565b60405133904780156108fc02916000818181858888f1935050505015801561085d573d6000803e3d6000fd5b50565b610868610a83565b6103d26000610b4b565b61087a610a83565b6103d2610bbb565b61088a610b28565b610892610ab3565b60048054604051636eb1769f60e11b81526000926001600160a01b039092169163dd62ed3e916108c6913391309101610e30565b602060405180830381865afa1580156108e3573d6000803e3d6000fd5b505050506040513d601f19601f820116820180604052508101906109079190610e56565b90507f0000000000000000000000000000000000000000000000000000000000000000816005546109389190610faf565b11156109565760405162461bcd60e51b815260040161049490610ff6565b600480546040516323b872dd60e01b81526000926001600160a01b03909216916323b872dd9161098c9133913091899101610ebb565b6020604051808303816000875af11580156109ab573d6000803e3d6000fd5b505050506040513d601f19601f820116820180604052508101906109cf9190610dc8565b90508015610a415782600560008282546109e99190610faf565b909155505033600081815260026020526040812080547fffffffffffffffffffffffff000000000000000000000000000000000000000016909217825560019091018054859290610a3b908490610faf565b90915550505b505061085d60018055565b610a54610a83565b6001600160a01b038116610a7a5760405162461bcd60e51b815260040161049490611060565b61085d81610b4b565b6000546001600160a01b036101009091041633146103d25760405162461bcd60e51b8152600401610494906110a2565b600260015403610ad55760405162461bcd60e51b8152600401610494906110e6565b6002600155565b610ae4610bf8565b6000805460ff191690557f5db9ee0a495bf2e6ff9c91a7834c1ba4fdd244a5e8aa4e537bd38aeae4b073aa335b604051610b1e9190610d25565b60405180910390a1565b60005460ff16156103d25760405162461bcd60e51b81526004016104949061112a565b600080546001600160a01b038381166101008181027fffffffffffffffffffffff0000000000000000000000000000000000000000ff851617855560405193049190911692909183917f8be0079c531659141344cd1fd0a4f28419497f9722a3daafe3b4186f6b6457e091a35050565b610bc3610b28565b6000805460ff191660011790557f62e78cea01bee320cd4e420270b5ea74000d11b0c9f74754ebdbfc544b05a258610b113390565b60005460ff166103d25760405162461bcd60e51b81526004016104949061116e565b60005b83811015610c35578181015183820152602001610c1d565b50506000910152565b6000610c48825190565b808452602084019350610c5f818560208601610c1a565b601f01601f19169290920192915050565b60208082528101610c818184610c3e565b9392505050565b60006001600160a01b0382165b92915050565b610ca481610c88565b811461085d57600080fd5b8035610c9581610c9b565b600060208284031215610ccf57610ccf600080fd5b6000610cdb8484610caf565b949350505050565b8015155b82525050565b60208101610c958284610ce3565b80610ce7565b60408101610d0f8285610ce3565b610c816020830184610cfb565b610ce781610c88565b60208101610c958284610d1c565b80610ca4565b8035610c9581610d33565b600060208284031215610d5957610d59600080fd5b6000610cdb8484610d39565b634e487b7160e01b600052602260045260246000fd5b600281046001821680610d8f57607f821691505b602082108103610da157610da1610d65565b50919050565b60408101610d0f8285610d1c565b801515610ca4565b8051610c9581610db5565b600060208284031215610ddd57610ddd600080fd5b6000610cdb8484610dbd565b601681526000602082017f70726f6a65637420616c72656164792072657061696400000000000000000000815291505b5060200190565b60208082528101610c9581610de9565b60408101610e3e8285610d1c565b610c816020830184610d1c565b8051610c9581610d33565b600060208284031215610e6b57610e6b600080fd5b6000610cdb8484610e4b565b601881526000602082017f496e76616c69642072657061796d656e7420616d6f756e74000000000000000081529150610e19565b60208082528101610c9581610e77565b60608101610ec98286610d1c565b610ed66020830185610d1c565b610cdb6040830184610cfb565b603a81526000602082017f636f6e747261637420686173206e6f74206265656e20726570616964206f722081527f7573657220616c726561647920636c61696d65642066756e6473000000000000602082015291505b5060400190565b60208082528101610c9581610ee3565b634e487b7160e01b600052601260045260246000fd5b634e487b7160e01b600052601160045260246000fd5b600082610f8b57610f8b610f50565b500490565b818102808215838204851417610fa857610fa8610f66565b5092915050565b80820180821115610c9557610c95610f66565b601d81526000602082017f6465706f736974206578636565647320616d6f756e74206e656564656400000081529150610e19565b60208082528101610c9581610fc2565b602681526000602082017f4f776e61626c653a206e6577206f776e657220697320746865207a65726f206181527f646472657373000000000000000000000000000000000000000000000000000060208201529150610f39565b60208082528101610c9581611006565b60208082527f4f776e61626c653a2063616c6c6572206973206e6f7420746865206f776e657291019081526000610e19565b60208082528101610c9581611070565b601f81526000602082017f5265656e7472616e637947756172643a207265656e7472616e742063616c6c0081529150610e19565b60208082528101610c95816110b2565b601081526000602082017f5061757361626c653a207061757365640000000000000000000000000000000081529150610e19565b60208082528101610c95816110f6565b601481526000602082017f5061757361626c653a206e6f742070617573656400000000000000000000000081529150610e19565b60208082528101610c958161113a56fea26469706673582212205927a0c317e2a5062d6f3ebf3a0f1a035c6822bb430a1e527f20c1d3fba8a78864736f6c63430008110033a2646970667358221220e059eeb656935e1f26979f2773c7efaf71596ccb7649b2bcef0dd57b2889a14d64736f6c63430008110033",
	"linkReferences": {},
	"deployedLinkReferences": {}
}