{
	"_format": "hh-sol-artifact-1",
	"contractName": "Project",
	"sourceName": "contracts/Project.sol",
	"abi": [
		{
			"inputs": [
				{
					"internalType": "uint256",
					"name": "_amount",
					"type": "uint256"
				},
				{
					"internalType": "uint256",
					"name": "_repay",
					"type": "uint256"
				}
			],
			"stateMutability": "nonpayable",
			"type": "constructor"
		},
		{
			"anonymous": false,
			"inputs": [
				{
					"indexed": true,
					"internalType": "address",
					"name": "previousOwner",
					"type": "address"
				},
				{
					"indexed": true,
					"internalType": "address",
					"name": "newOwner",
					"type": "address"
				}
			],
			"name": "OwnershipTransferred",
			"type": "event"
		},
		{
			"anonymous": false,
			"inputs": [
				{
					"indexed": false,
					"internalType": "address",
					"name": "account",
					"type": "address"
				}
			],
			"name": "Paused",
			"type": "event"
		},
		{
			"anonymous": false,
			"inputs": [
				{
					"indexed": false,
					"internalType": "address",
					"name": "account",
					"type": "address"
				}
			],
			"name": "Unpaused",
			"type": "event"
		},
		{
			"inputs": [
				{
					"internalType": "uint256",
					"name": "amountToWithdraw",
					"type": "uint256"
				}
			],
			"name": "claim",
			"outputs": [],
			"stateMutability": "payable",
			"type": "function"
		},
		{
			"inputs": [
				{
					"internalType": "uint256",
					"name": "amountToRepay",
					"type": "uint256"
				}
			],
			"name": "deposit",
			"outputs": [],
			"stateMutability": "payable",
			"type": "function"
		},
		{
			"inputs": [],
			"name": "owner",
			"outputs": [
				{
					"internalType": "address",
					"name": "",
					"type": "address"
				}
			],
			"stateMutability": "view",
			"type": "function"
		},
		{
			"inputs": [],
			"name": "pause",
			"outputs": [],
			"stateMutability": "nonpayable",
			"type": "function"
		},
		{
			"inputs": [],
			"name": "paused",
			"outputs": [
				{
					"internalType": "bool",
					"name": "",
					"type": "bool"
				}
			],
			"stateMutability": "view",
			"type": "function"
		},
		{
			"inputs": [],
			"name": "renounceOwnership",
			"outputs": [],
			"stateMutability": "nonpayable",
			"type": "function"
		},
		{
			"inputs": [],
			"name": "repay",
			"outputs": [],
			"stateMutability": "payable",
			"type": "function"
		},
		{
			"inputs": [
				{
					"internalType": "address",
					"name": "newOwner",
					"type": "address"
				}
			],
			"name": "transferOwnership",
			"outputs": [],
			"stateMutability": "nonpayable",
			"type": "function"
		},
		{
			"inputs": [],
			"name": "unpause",
			"outputs": [],
			"stateMutability": "nonpayable",
			"type": "function"
		},
		{
			"stateMutability": "payable",
			"type": "receive"
		}
	],
	"bytecode": "0x60c060405234801561001057600080fd5b5060405161092a38038061092a83398101604081905261002f916100ad565b6000805460ff1916905561004233610054565b6001805560809190915260a0526100d1565b600080546001600160a01b03838116610100818102610100600160a81b0319851617855560405193049190911692909183917f8be0079c531659141344cd1fd0a4f28419497f9722a3daafe3b4186f6b6457e091a35050565b600080604083850312156100c057600080fd5b505080516020909101519092909150565b60805160a0516108346100f660003960006103460152600061040701526108346000f3fe60806040526004361061008a5760003560e01c8063715018a611610059578063715018a6146100f05780638456cb59146101055780638da5cb5b1461011a578063b6b55f2514610150578063f2fde38b1461016357600080fd5b8063379607f5146100965780633f4ba83a146100ab578063402d8883146100c05780635c975abb146100c857600080fd5b3661009157005b600080fd5b6100a96100a4366004610773565b610183565b005b3480156100b757600080fd5b506100a96102d7565b6100a96102e9565b3480156100d457600080fd5b5060005460ff1660405190151581526020015b60405180910390f35b3480156100fc57600080fd5b506100a96103c9565b34801561011157600080fd5b506100a96103db565b34801561012657600080fd5b5060005461010090046001600160a01b03166040516001600160a01b0390911681526020016100e7565b6100a961015e366004610773565b6103eb565b34801561016f57600080fd5b506100a961017e36600461078c565b6104cd565b61018b610543565b610193610589565b60035460ff166101ea5760405162461bcd60e51b815260206004820152601a60248201527f636f6e747261637420686173206e6f74206265656e207061696400000000000060448201526064015b60405180910390fd5b336000908152600260205260409020600101548110156102415760405162461bcd60e51b8152602060048201526012602482015271496e73756666696369656e742046756e647360701b60448201526064016101e1565b33600090815260026020526040812060010180548392906102639084906107d2565b9091555050604051600090339083156108fc0290849084818181858888f193505050509050806102ca5760405162461bcd60e51b81526020600482015260126024820152714661696c656420746f20436f6d706c65746560701b60448201526064016101e1565b506102d460018055565b50565b6102df6105e2565b6102e7610642565b565b6102f1610543565b6102f9610589565b60035460ff166103445760405162461bcd60e51b81526020600482015260166024820152751c1c9bda9958dd08185b1c9958591e481c995c185a5960521b60448201526064016101e1565b7f000000000000000000000000000000000000000000000000000000000000000034146103b35760405162461bcd60e51b815260206004820152601860248201527f496e76616c69642072657061796d656e7420616d6f756e74000000000000000060448201526064016101e1565b6003805460ff191660011790556102e760018055565b6103d16105e2565b6102e76000610694565b6103e36105e2565b6102e76106ed565b6103f3610543565b6103fb610589565b61040534476107eb565b7f000000000000000000000000000000000000000000000000000000000000000011156104745760405162461bcd60e51b815260206004820152601d60248201527f6465706f736974206578636565647320616d6f756e74206e656564656400000060448201526064016101e1565b33600081815260026020526040812080546001600160a01b0319169092178255600190910180543492906104a99084906107eb565b9091555050336000908152600260208190526040909120018190556102d460018055565b6104d56105e2565b6001600160a01b03811661053a5760405162461bcd60e51b815260206004820152602660248201527f4f776e61626c653a206e6577206f776e657220697320746865207a65726f206160448201526564647265737360d01b60648201526084016101e1565b6102d481610694565b60005460ff16156102e75760405162461bcd60e51b815260206004820152601060248201526f14185d5cd8589b194e881c185d5cd95960821b60448201526064016101e1565b6002600154036105db5760405162461bcd60e51b815260206004820152601f60248201527f5265656e7472616e637947756172643a207265656e7472616e742063616c6c0060448201526064016101e1565b6002600155565b6000546001600160a01b036101009091041633146102e75760405162461bcd60e51b815260206004820181905260248201527f4f776e61626c653a2063616c6c6572206973206e6f7420746865206f776e657260448201526064016101e1565b61064a61072a565b6000805460ff191690557f5db9ee0a495bf2e6ff9c91a7834c1ba4fdd244a5e8aa4e537bd38aeae4b073aa335b6040516001600160a01b03909116815260200160405180910390a1565b600080546001600160a01b03838116610100818102610100600160a81b0319851617855560405193049190911692909183917f8be0079c531659141344cd1fd0a4f28419497f9722a3daafe3b4186f6b6457e091a35050565b6106f5610543565b6000805460ff191660011790557f62e78cea01bee320cd4e420270b5ea74000d11b0c9f74754ebdbfc544b05a2586106773390565b60005460ff166102e75760405162461bcd60e51b815260206004820152601460248201527314185d5cd8589b194e881b9bdd081c185d5cd95960621b60448201526064016101e1565b60006020828403121561078557600080fd5b5035919050565b60006020828403121561079e57600080fd5b81356001600160a01b03811681146107b557600080fd5b9392505050565b634e487b7160e01b600052601160045260246000fd5b818103818111156107e5576107e56107bc565b92915050565b808201808211156107e5576107e56107bc56fea26469706673582212203bcf0de2934f72d8ae01de5133f5ed9c39ab4ef6a328ac26db33a90c2bd598d464736f6c63430008110033",
	"linkReferences": {},
	"deployedLinkReferences": {}
}