{
	"contractName": "Deployer",
	"abi": [
		{
			"inputs": [
				{
					"internalType": "address",
					"name": "_token",
					"type": "address"
				}
			],
			"stateMutability": "nonpayable",
			"type": "constructor"
		},
		{
			"anonymous": false,
			"inputs": [
				{
					"indexed": true,
					"internalType": "address",
					"name": "previousOwner",
					"type": "address"
				},
				{
					"indexed": true,
					"internalType": "address",
					"name": "newOwner",
					"type": "address"
				}
			],
			"name": "OwnershipTransferred",
			"type": "event",
			"stateMutability": "nonpayable"
		},
		{
			"anonymous": false,
			"inputs": [
				{
					"indexed": false,
					"internalType": "address",
					"name": "account",
					"type": "address"
				}
			],
			"name": "Paused",
			"type": "event",
			"stateMutability": "nonpayable"
		},
		{
			"anonymous": false,
			"inputs": [
				{
					"indexed": false,
					"internalType": "address",
					"name": "account",
					"type": "address"
				}
			],
			"name": "Unpaused",
			"type": "event",
			"stateMutability": "nonpayable"
		},
		{
			"inputs": [
				{
					"internalType": "string",
					"name": "projectId",
					"type": "string"
				},
				{
					"internalType": "uint256",
					"name": "_amount",
					"type": "uint256"
				},
				{
					"internalType": "uint256",
					"name": "_repay",
					"type": "uint256"
				}
			],
			"name": "deployProject",
			"outputs": [
				{
					"internalType": "address",
					"name": "",
					"type": "address"
				}
			],
			"stateMutability": "nonpayable",
			"type": "function"
		},
		{
			"inputs": [],
			"name": "emptyBalance",
			"outputs": [],
			"stateMutability": "nonpayable",
			"type": "function"
		},
		{
			"inputs": [],
			"name": "owner",
			"outputs": [
				{
					"internalType": "address",
					"name": "",
					"type": "address"
				}
			],
			"stateMutability": "view",
			"type": "function"
		},
		{
			"inputs": [],
			"name": "pause",
			"outputs": [],
			"stateMutability": "nonpayable",
			"type": "function"
		},
		{
			"inputs": [],
			"name": "paused",
			"outputs": [
				{
					"internalType": "bool",
					"name": "",
					"type": "bool"
				}
			],
			"stateMutability": "view",
			"type": "function"
		},
		{
			"inputs": [
				{
					"internalType": "string",
					"name": "_projectId",
					"type": "string"
				}
			],
			"name": "projectAddress",
			"outputs": [
				{
					"internalType": "address",
					"name": "",
					"type": "address"
				}
			],
			"stateMutability": "view",
			"type": "function"
		},
		{
			"inputs": [],
			"name": "renounceOwnership",
			"outputs": [],
			"stateMutability": "nonpayable",
			"type": "function"
		},
		{
			"inputs": [
				{
					"internalType": "address",
					"name": "newOwner",
					"type": "address"
				}
			],
			"name": "transferOwnership",
			"outputs": [],
			"stateMutability": "nonpayable",
			"type": "function"
		},
		{
			"inputs": [],
			"name": "unpause",
			"outputs": [],
			"stateMutability": "nonpayable",
			"type": "function"
		},
		{
			"inputs": [
				{
					"internalType": "address",
					"name": "_from",
					"type": "address"
				},
				{
					"internalType": "address",
					"name": "_to",
					"type": "address"
				}
			],
			"name": "withdrawBalance",
			"outputs": [
				{
					"internalType": "bool",
					"name": "",
					"type": "bool"
				}
			],
			"stateMutability": "nonpayable",
			"type": "function"
		},
		{
			"stateMutability": "payable",
			"type": "receive",
			"name": "receive"
		}
	],
	"bytecode": "0x60806040523480156200001157600080fd5b50d380156200001f57600080fd5b50d280156200002d57600080fd5b506040516200374f3803806200374f8339818101604052810190620000539190620001cd565b60008060006101000a81548160ff0219169083151502179055506200008d62000081620000dc60201b60201c565b620000e460201b60201c565b6001808190555080600360006101000a81548173ffffffffffffffffffffffffffffffffffffffff021916908373ffffffffffffffffffffffffffffffffffffffff1602179055505062000273565b600033905090565b60008060019054906101000a900473ffffffffffffffffffffffffffffffffffffffff16905081600060016101000a81548173ffffffffffffffffffffffffffffffffffffffff021916908373ffffffffffffffffffffffffffffffffffffffff1602179055508173ffffffffffffffffffffffffffffffffffffffff168173ffffffffffffffffffffffffffffffffffffffff167f8be0079c531659141344cd1fd0a4f28419497f9722a3daafe3b4186f6b6457e060405160405180910390a35050565b600081519050620001ba8162000259565b620001c581620001ff565b905092915050565b600060208284031215620001e657620001e562000254565b5b6000620001f684828501620001a9565b91505092915050565b60006200020c8262000213565b9050919050565b600073ffffffffffffffffffffffffffffffffffffffff82169050919050565b600074ffffffffffffffffffffffffffffffffffffffffff82169050919050565b600080fd5b620002648162000233565b81146200027057600080fd5b50565b6134cc80620002836000396000f3fe608060405260043610620000a35760003560e01c80638456cb5911620000615780638456cb5914620001fe5780638da5cb5b1462000234578063dad41d1d1462000280578063f2fde38b14620002e0578063fb43c434146200032a57620000ab565b806315a269f714620000b05780633f4ba83a14620001105780635a4ff67914620001465780635c975abb146200017c578063715018a614620001c857620000ab565b36620000ab57005b600080fd5b348015620000bd57600080fd5b50d38015620000cb57600080fd5b50d28015620000d957600080fd5b50620000f86004803603810190620000f2919062000a91565b6200038a565b60405162000107919062000d53565b60405180910390f35b3480156200011d57600080fd5b50d380156200012b57600080fd5b50d280156200013957600080fd5b506200014462000435565b005b3480156200015357600080fd5b50d380156200016157600080fd5b50d280156200016f57600080fd5b506200017a6200044b565b005b3480156200018957600080fd5b50d380156200019757600080fd5b50d28015620001a557600080fd5b50620001b06200049f565b604051620001bf919062000d53565b60405180910390f35b348015620001d557600080fd5b50d38015620001e357600080fd5b50d28015620001f157600080fd5b50620001fc620004b5565b005b3480156200020b57600080fd5b50d380156200021957600080fd5b50d280156200022757600080fd5b5062000232620004cd565b005b3480156200024157600080fd5b50d380156200024f57600080fd5b50d280156200025d57600080fd5b5062000268620004e3565b60405162000277919062000d36565b60405180910390f35b3480156200028d57600080fd5b50d380156200029b57600080fd5b50d28015620002a957600080fd5b50620002c86004803603810190620002c2919062000b5b565b6200050c565b604051620002d7919062000d36565b60405180910390f35b348015620002ed57600080fd5b50d38015620002fb57600080fd5b50d280156200030957600080fd5b5062000328600480360381019062000322919062000a5f565b620005ed565b005b3480156200033757600080fd5b50d380156200034557600080fd5b50d280156200035357600080fd5b506200037260048036038101906200036c919062000b0a565b62000678565b60405162000381919062000d36565b60405180910390f35b600062000396620006c2565b60008390508073ffffffffffffffffffffffffffffffffffffffff16631fadb628846040518263ffffffff1660e01b8152600401620003d6919062000d36565b602060405180830381600087803b158015620003f157600080fd5b505af115801562000406573d6000803e3d6000fd5b505050506040513d601f19601f820116820180604052508101906200042c919062000ad8565b91505092915050565b6200043f620006c2565b6200044962000747565b565b62000455620006c2565b3373ffffffffffffffffffffffffffffffffffffffff166108fc479081150290604051600060405180830381858888f193505050501580156200049c573d6000803e3d6000fd5b50565b60008060009054906101000a900460ff16905090565b620004bf620006c2565b620004cb6000620007af565b565b620004d7620006c2565b620004e162000874565b565b60008060019054906101000a900473ffffffffffffffffffffffffffffffffffffffff16905090565b600062000518620006c2565b6000848484600360009054906101000a900473ffffffffffffffffffffffffffffffffffffffff166040516200054e9062000981565b6200055d949392919062000d70565b604051809103906000f0801580156200057a573d6000803e3d6000fd5b50905060008190508060028760405162000595919062000d1d565b908152602001604051809103902060006101000a81548173ffffffffffffffffffffffffffffffffffffffff021916908373ffffffffffffffffffffffffffffffffffffffff16021790555080925050509392505050565b620005f7620006c2565b600073ffffffffffffffffffffffffffffffffffffffff168173ffffffffffffffffffffffffffffffffffffffff1614156200066a576040517f08c379a0000000000000000000000000000000000000000000000000000000008152600401620006619062000de6565b60405180910390fd5b6200067581620007af565b50565b60006002826040516200068c919062000d1d565b908152602001604051809103902060009054906101000a900473ffffffffffffffffffffffffffffffffffffffff169050919050565b620006cc620008dc565b73ffffffffffffffffffffffffffffffffffffffff16620006ec620004e3565b73ffffffffffffffffffffffffffffffffffffffff161462000745576040517f08c379a00000000000000000000000000000000000000000000000000000000081526004016200073c9062000e2a565b60405180910390fd5b565b62000751620008e4565b60008060006101000a81548160ff0219169083151502179055507f5db9ee0a495bf2e6ff9c91a7834c1ba4fdd244a5e8aa4e537bd38aeae4b073aa62000796620008dc565b604051620007a5919062000d36565b60405180910390a1565b60008060019054906101000a900473ffffffffffffffffffffffffffffffffffffffff16905081600060016101000a81548173ffffffffffffffffffffffffffffffffffffffff021916908373ffffffffffffffffffffffffffffffffffffffff1602179055508173ffffffffffffffffffffffffffffffffffffffff168173ffffffffffffffffffffffffffffffffffffffff167f8be0079c531659141344cd1fd0a4f28419497f9722a3daafe3b4186f6b6457e060405160405180910390a35050565b6200087e62000932565b60016000806101000a81548160ff0219169083151502179055507f62e78cea01bee320cd4e420270b5ea74000d11b0c9f74754ebdbfc544b05a258620008c3620008dc565b604051620008d2919062000d36565b60405180910390a1565b600033905090565b620008ee6200049f565b62000930576040517f08c379a0000000000000000000000000000000000000000000000000000000008152600401620009279062000dc4565b60405180910390fd5b565b6200093c6200049f565b156200097f576040517f08c379a0000000000000000000000000000000000000000000000000000000008152600401620009769062000e08565b60405180910390fd5b565b612372806200112583390190565b6000620009a6620009a08462000e75565b62000e4c565b905082815260208101848484011115620009c557620009c462000fec565b5b620009d284828562000f3d565b509392505050565b600081359050620009eb81620010d6565b620009f68162000ed2565b905092915050565b60008151905062000a0f81620010f0565b92915050565b600082601f83011262000a2d5762000a2c62000fe7565b5b813562000a3f8482602086016200098f565b91505092915050565b60008135905062000a59816200110a565b92915050565b60006020828403121562000a785762000a7762000ff6565b5b600062000a8884828501620009da565b91505092915050565b6000806040838503121562000aab5762000aaa62000ff6565b5b600062000abb85828601620009da565b925050602062000ace85828601620009da565b9150509250929050565b60006020828403121562000af15762000af062000ff6565b5b600062000b0184828501620009fe565b91505092915050565b60006020828403121562000b235762000b2262000ff6565b5b600082013567ffffffffffffffff81111562000b445762000b4362000ff1565b5b62000b528482850162000a15565b91505092915050565b60008060006060848603121562000b775762000b7662000ff6565b5b600084013567ffffffffffffffff81111562000b985762000b9762000ff1565b5b62000ba68682870162000a15565b935050602062000bb98682870162000a48565b925050604062000bcc8682870162000a48565b9150509250925092565b62000be18162000ed2565b82525050565b62000bf28162000ee6565b82525050565b600062000c058262000eab565b62000c11818562000eb6565b935062000c2381856020860162000f4c565b62000c2e8162000ffb565b840191505092915050565b600062000c468262000eab565b62000c52818562000ec7565b935062000c6481856020860162000f4c565b80840191505092915050565b600062000c7f60148362000eb6565b915062000c8c826200100c565b602082019050919050565b600062000ca660268362000eb6565b915062000cb38262001035565b604082019050919050565b600062000ccd60108362000eb6565b915062000cda8262001084565b602082019050919050565b600062000cf460208362000eb6565b915062000d0182620010ad565b602082019050919050565b62000d178162000f33565b82525050565b600062000d2b828462000c39565b915081905092915050565b600060208201905062000d4d600083018462000bd6565b92915050565b600060208201905062000d6a600083018462000be7565b92915050565b6000608082019050818103600083015262000d8c818762000bf8565b905062000d9d602083018662000d0c565b62000dac604083018562000d0c565b62000dbb606083018462000bd6565b95945050505050565b6000602082019050818103600083015262000ddf8162000c70565b9050919050565b6000602082019050818103600083015262000e018162000c97565b9050919050565b6000602082019050818103600083015262000e238162000cbe565b9050919050565b6000602082019050818103600083015262000e458162000ce5565b9050919050565b600062000e5862000e6b565b905062000e66828262000f82565b919050565b6000604051905090565b600067ffffffffffffffff82111562000e935762000e9262000fb8565b5b62000e9e8262000ffb565b9050602081019050919050565b600081519050919050565b600082825260208201905092915050565b600081905092915050565b600062000edf8262000ef2565b9050919050565b60008115159050919050565b600073ffffffffffffffffffffffffffffffffffffffff82169050919050565b600074ffffffffffffffffffffffffffffffffffffffffff82169050919050565b6000819050919050565b82818337600083830152505050565b60005b8381101562000f6c57808201518184015260208101905062000f4f565b8381111562000f7c576000848401525b50505050565b62000f8d8262000ffb565b810181811067ffffffffffffffff8211171562000faf5762000fae62000fb8565b5b80604052505050565b7f4e487b7100000000000000000000000000000000000000000000000000000000600052604160045260246000fd5b600080fd5b600080fd5b600080fd5b600080fd5b6000601f19601f8301169050919050565b7f5061757361626c653a206e6f7420706175736564000000000000000000000000600082015250565b7f4f776e61626c653a206e6577206f776e657220697320746865207a65726f206160008201527f6464726573730000000000000000000000000000000000000000000000000000602082015250565b7f5061757361626c653a2070617573656400000000000000000000000000000000600082015250565b7f4f776e61626c653a2063616c6c6572206973206e6f7420746865206f776e6572600082015250565b620010e18162000f12565b8114620010ed57600080fd5b50565b620010fb8162000ee6565b81146200110757600080fd5b50565b620011158162000f33565b81146200112157600080fd5b5056fe60c060405260006005553480156200001657600080fd5b50d380156200002457600080fd5b50d280156200003257600080fd5b506040516200237238038062002372833981810160405281019062000058919062000343565b60008060006101000a81548160ff02191690831515021790555062000092620000866200010d60201b60201c565b6200011560201b60201c565b600180819055508360039080519060200190620000b1929190620001da565b5082608081815250508160a0818152505080600460006101000a81548173ffffffffffffffffffffffffffffffffffffffff021916908373ffffffffffffffffffffffffffffffffffffffff16021790555050505050620005eb565b600033905090565b60008060019054906101000a900473ffffffffffffffffffffffffffffffffffffffff16905081600060016101000a81548173ffffffffffffffffffffffffffffffffffffffff021916908373ffffffffffffffffffffffffffffffffffffffff1602179055508173ffffffffffffffffffffffffffffffffffffffff168173ffffffffffffffffffffffffffffffffffffffff167f8be0079c531659141344cd1fd0a4f28419497f9722a3daafe3b4186f6b6457e060405160405180910390a35050565b828054620001e890620004c8565b90600052602060002090601f0160209004810192826200020c576000855562000258565b82601f106200022757805160ff191683800117855562000258565b8280016001018555821562000258579182015b82811115620002575782518255916020019190600101906200023a565b5b5090506200026791906200026b565b5090565b5b80821115620002865760008160009055506001016200026c565b5090565b6000620002a16200029b84620003fd565b620003d4565b905082815260208101848484011115620002c057620002bf62000597565b5b620002cd84828562000492565b509392505050565b600081519050620002e681620005b7565b620002f18162000433565b905092915050565b600082601f83011262000311576200031062000592565b5b8151620003238482602086016200028a565b91505092915050565b6000815190506200033d81620005d1565b92915050565b6000806000806080858703121562000360576200035f620005a1565b5b600085015167ffffffffffffffff8111156200038157620003806200059c565b5b6200038f87828801620002f9565b9450506020620003a2878288016200032c565b9350506040620003b5878288016200032c565b9250506060620003c887828801620002d5565b91505092959194509250565b6000620003e0620003f3565b9050620003ee8282620004fe565b919050565b6000604051905090565b600067ffffffffffffffff8211156200041b576200041a62000563565b5b6200042682620005a6565b9050602081019050919050565b6000620004408262000447565b9050919050565b600073ffffffffffffffffffffffffffffffffffffffff82169050919050565b600074ffffffffffffffffffffffffffffffffffffffffff82169050919050565b6000819050919050565b60005b83811015620004b257808201518184015260208101905062000495565b83811115620004c2576000848401525b50505050565b60006002820490506001821680620004e157607f821691505b60208210811415620004f857620004f762000534565b5b50919050565b6200050982620005a6565b810181811067ffffffffffffffff821117156200052b576200052a62000563565b5b80604052505050565b7f4e487b7100000000000000000000000000000000000000000000000000000000600052602260045260246000fd5b7f4e487b7100000000000000000000000000000000000000000000000000000000600052604160045260246000fd5b600080fd5b600080fd5b600080fd5b600080fd5b6000601f19601f8301169050919050565b620005c28162000467565b8114620005ce57600080fd5b50565b620005dc8162000488565b8114620005e857600080fd5b50565b60805160a051611d536200061f600039600081816106d8015281816108270152610a3901526000610e260152611d536000f3fe6080604052600436106100e15760003560e01c80635a4ff6791161007f5780638456cb59116100595780638456cb591461034e5780638da5cb5b1461037f578063b6b55f25146103c4578063f2fde38b14610407576100e8565b80635a4ff679146102a75780635c975abb146102d8578063715018a61461031d576100e8565b80633fafa127116100bb5780633fafa127146101ba578063402d8883146101ff5780634e71d92d14610230578063588ee29b14610261576100e8565b80631270e10c146100ed5780631fadb628146101325780633f4ba83a14610189576100e8565b366100e857005b600080fd5b3480156100f957600080fd5b50d3801561010657600080fd5b50d2801561011357600080fd5b5061011c61044a565b604051610129919061176b565b60405180910390f35b34801561013e57600080fd5b50d3801561014b57600080fd5b50d2801561015857600080fd5b50610173600480360381019061016e919061142e565b6104dc565b6040516101809190611727565b60405180910390f35b34801561019557600080fd5b50d380156101a257600080fd5b50d280156101af57600080fd5b506101b86105d7565b005b3480156101c657600080fd5b50d380156101d357600080fd5b50d280156101e057600080fd5b506101e96105e9565b6040516101f6919061176b565b60405180910390f35b34801561020b57600080fd5b50d3801561021857600080fd5b50d2801561022557600080fd5b5061022e610677565b005b34801561023c57600080fd5b50d3801561024957600080fd5b50d2801561025657600080fd5b5061025f6108d9565b005b34801561026d57600080fd5b50d3801561027a57600080fd5b50d2801561028757600080fd5b50610290610be5565b60405161029e929190611742565b60405180910390f35b3480156102b357600080fd5b50d380156102c057600080fd5b50d280156102cd57600080fd5b506102d6610cad565b005b3480156102e457600080fd5b50d380156102f157600080fd5b50d280156102fe57600080fd5b50610307610cfe565b6040516103149190611727565b60405180910390f35b34801561032957600080fd5b50d3801561033657600080fd5b50d2801561034357600080fd5b5061034c610d14565b005b34801561035a57600080fd5b50d3801561036757600080fd5b50d2801561037457600080fd5b5061037d610d28565b005b34801561038b57600080fd5b50d3801561039857600080fd5b50d280156103a557600080fd5b506103ae610d3a565b6040516103bb9190611683565b60405180910390f35b3480156103d057600080fd5b50d380156103dd57600080fd5b50d280156103ea57600080fd5b5061040560048036038101906104009190611488565b610d63565b005b34801561041357600080fd5b50d3801561042057600080fd5b50d2801561042d57600080fd5b506104486004803603810190610443919061142e565b611050565b005b60606003805461045990611a46565b80601f016020809104026020016040519081016040528092919081815260200182805461048590611a46565b80156104d25780601f106104a7576101008083540402835291602001916104d2565b820191906000526020600020905b8154815290600101906020018083116104b557829003601f168201915b5050505050905090565b60006104e66110d4565b6104ee611152565b600460009054906101000a900473ffffffffffffffffffffffffffffffffffffffff1673ffffffffffffffffffffffffffffffffffffffff1663a9059cbb836005546040518363ffffffff1660e01b815260040161054d9291906116fe565b602060405180830381600087803b15801561056757600080fd5b505af115801561057b573d6000803e3d6000fd5b505050506040513d601f19601f8201168201806040525081019061059f919061145b565b600660016101000a81548160ff021916908315150217905550600660019054906101000a900460ff1690506105d26111a2565b919050565b6105df6110d4565b6105e76111ab565b565b600380546105f690611a46565b80601f016020809104026020016040519081016040528092919081815260200182805461062290611a46565b801561066f5780601f106106445761010080835404028352916020019161066f565b820191906000526020600020905b81548152906001019060200180831161065257829003601f168201915b505050505081565b61067f61120d565b610687611152565b600660009054906101000a900460ff166106d6576040517f08c379a00000000000000000000000000000000000000000000000000000000081526004016106cd9061184d565b60405180910390fd5b7f0000000000000000000000000000000000000000000000000000000000000000600460009054906101000a900473ffffffffffffffffffffffffffffffffffffffff1673ffffffffffffffffffffffffffffffffffffffff1663dd62ed3e33306040518363ffffffff1660e01b815260040161075492919061169e565b60206040518083038186803b15801561076c57600080fd5b505afa158015610780573d6000803e3d6000fd5b505050506040513d601f19601f820116820180604052508101906107a491906114b5565b14156107e5576040517f08c379a00000000000000000000000000000000000000000000000000000000081526004016107dc9061182d565b60405180910390fd5b600460009054906101000a900473ffffffffffffffffffffffffffffffffffffffff1673ffffffffffffffffffffffffffffffffffffffff166323b872dd33307f00000000000000000000000000000000000000000000000000000000000000006040518463ffffffff1660e01b8152600401610864939291906116c7565b602060405180830381600087803b15801561087e57600080fd5b505af1158015610892573d6000803e3d6000fd5b505050506040513d601f19601f820116820180604052508101906108b6919061145b565b600660006101000a81548160ff0219169083151502179055506108d76111a2565b565b6108e161120d565b6108e9611152565b6000600260003373ffffffffffffffffffffffffffffffffffffffff1673ffffffffffffffffffffffffffffffffffffffff1681526020019081526020016000206040518060a00160405290816000820160009054906101000a900473ffffffffffffffffffffffffffffffffffffffff1673ffffffffffffffffffffffffffffffffffffffff1673ffffffffffffffffffffffffffffffffffffffff16815260200160018201548152602001600282015481526020016003820160009054906101000a900460ff161515151581526020016003820160019054906101000a900460ff1615151515815250509050600660009054906101000a900460ff161580156109f657508060800151155b610a35576040517f08c379a0000000000000000000000000000000000000000000000000000000008152600401610a2c9061188d565b60405180910390fd5b60007f00000000000000000000000000000000000000000000000000000000000000006005548360200151610a6a919061191f565b610a749190611950565b90506001600260003373ffffffffffffffffffffffffffffffffffffffff1673ffffffffffffffffffffffffffffffffffffffff16815260200190815260200160002060030160016101000a81548160ff021916908315150217905550600460009054906101000a900473ffffffffffffffffffffffffffffffffffffffff1673ffffffffffffffffffffffffffffffffffffffff1663a9059cbb33836040518363ffffffff1660e01b8152600401610b2e9291906116fe565b602060405180830381600087803b158015610b4857600080fd5b505af1158015610b5c573d6000803e3d6000fd5b505050506040513d601f19601f82011682018060405250810190610b80919061145b565b600260003373ffffffffffffffffffffffffffffffffffffffff1673ffffffffffffffffffffffffffffffffffffffff16815260200190815260200160002060030160016101000a81548160ff0219169083151502179055505050610be36111a2565b565b600080600660009054906101000a900460ff16600460009054906101000a900473ffffffffffffffffffffffffffffffffffffffff1673ffffffffffffffffffffffffffffffffffffffff1663dd62ed3e33306040518363ffffffff1660e01b8152600401610c5592919061169e565b60206040518083038186803b158015610c6d57600080fd5b505afa158015610c81573d6000803e3d6000fd5b505050506040513d601f19601f82011682018060405250810190610ca591906114b5565b915091509091565b610cb56110d4565b3373ffffffffffffffffffffffffffffffffffffffff166108fc479081150290604051600060405180830381858888f19350505050158015610cfb573d6000803e3d6000fd5b50565b60008060009054906101000a900460ff16905090565b610d1c6110d4565b610d266000611257565b565b610d306110d4565b610d3861131c565b565b60008060019054906101000a900473ffffffffffffffffffffffffffffffffffffffff16905090565b610d6b61120d565b610d73611152565b6000600460009054906101000a900473ffffffffffffffffffffffffffffffffffffffff1673ffffffffffffffffffffffffffffffffffffffff1663dd62ed3e33306040518363ffffffff1660e01b8152600401610dd292919061169e565b60206040518083038186803b158015610dea57600080fd5b505afa158015610dfe573d6000803e3d6000fd5b505050506040513d601f19601f82011682018060405250810190610e2291906114b5565b90507f000000000000000000000000000000000000000000000000000000000000000081600554610e5391906118c9565b1115610e94576040517f08c379a0000000000000000000000000000000000000000000000000000000008152600401610e8b906117ed565b60405180910390fd5b6000600460009054906101000a900473ffffffffffffffffffffffffffffffffffffffff1673ffffffffffffffffffffffffffffffffffffffff166323b872dd3330866040518463ffffffff1660e01b8152600401610ef5939291906116c7565b602060405180830381600087803b158015610f0f57600080fd5b505af1158015610f23573d6000803e3d6000fd5b505050506040513d601f19601f82011682018060405250810190610f47919061145b565b90508015611043578260056000828254610f6191906118c9565b9250508190555033600260003373ffffffffffffffffffffffffffffffffffffffff1673ffffffffffffffffffffffffffffffffffffffff16815260200190815260200160002060000160006101000a81548173ffffffffffffffffffffffffffffffffffffffff021916908373ffffffffffffffffffffffffffffffffffffffff16021790555082600260003373ffffffffffffffffffffffffffffffffffffffff1673ffffffffffffffffffffffffffffffffffffffff168152602001908152602001600020600101600082825461103b91906118c9565b925050819055505b505061104d6111a2565b50565b6110586110d4565b600073ffffffffffffffffffffffffffffffffffffffff168173ffffffffffffffffffffffffffffffffffffffff1614156110c8576040517f08c379a00000000000000000000000000000000000000000000000000000000081526004016110bf906117ad565b60405180910390fd5b6110d181611257565b50565b6110dc61137e565b73ffffffffffffffffffffffffffffffffffffffff166110fa610d3a565b73ffffffffffffffffffffffffffffffffffffffff1614611150576040517f08c379a00000000000000000000000000000000000000000000000000000000081526004016111479061180d565b60405180910390fd5b565b60026001541415611198576040517f08c379a000000000000000000000000000000000000000000000000000000000815260040161118f9061186d565b60405180910390fd5b6002600181905550565b60018081905550565b6111b3611386565b60008060006101000a81548160ff0219169083151502179055507f5db9ee0a495bf2e6ff9c91a7834c1ba4fdd244a5e8aa4e537bd38aeae4b073aa6111f661137e565b6040516112039190611683565b60405180910390a1565b611215610cfe565b15611255576040517f08c379a000000000000000000000000000000000000000000000000000000000815260040161124c906117cd565b60405180910390fd5b565b60008060019054906101000a900473ffffffffffffffffffffffffffffffffffffffff16905081600060016101000a81548173ffffffffffffffffffffffffffffffffffffffff021916908373ffffffffffffffffffffffffffffffffffffffff1602179055508173ffffffffffffffffffffffffffffffffffffffff168173ffffffffffffffffffffffffffffffffffffffff167f8be0079c531659141344cd1fd0a4f28419497f9722a3daafe3b4186f6b6457e060405160405180910390a35050565b61132461120d565b60016000806101000a81548160ff0219169083151502179055507f62e78cea01bee320cd4e420270b5ea74000d11b0c9f74754ebdbfc544b05a25861136761137e565b6040516113749190611683565b60405180910390a1565b600033905090565b61138e610cfe565b6113cd576040517f08c379a00000000000000000000000000000000000000000000000000000000081526004016113c49061178d565b60405180910390fd5b565b6000813590506113de81611cd8565b6113e7816119aa565b905092915050565b6000815190506113fe81611cef565b92915050565b60008135905061141381611d06565b92915050565b60008151905061142881611d06565b92915050565b60006020828403121561144457611443611b05565b5b6000611452848285016113cf565b91505092915050565b60006020828403121561147157611470611b05565b5b600061147f848285016113ef565b91505092915050565b60006020828403121561149e5761149d611b05565b5b60006114ac84828501611404565b91505092915050565b6000602082840312156114cb576114ca611b05565b5b60006114d984828501611419565b91505092915050565b6114eb816119aa565b82525050565b6114fa816119bc565b82525050565b600061150b826118ad565b61151581856118b8565b9350611525818560208601611a13565b61152e81611b0a565b840191505092915050565b60006115466014836118b8565b915061155182611b1b565b602082019050919050565b60006115696026836118b8565b915061157482611b44565b604082019050919050565b600061158c6010836118b8565b915061159782611b93565b602082019050919050565b60006115af601d836118b8565b91506115ba82611bbc565b602082019050919050565b60006115d26020836118b8565b91506115dd82611be5565b602082019050919050565b60006115f56018836118b8565b915061160082611c0e565b602082019050919050565b60006116186016836118b8565b915061162382611c37565b602082019050919050565b600061163b601f836118b8565b915061164682611c60565b602082019050919050565b600061165e603a836118b8565b915061166982611c89565b604082019050919050565b61167d81611a09565b82525050565b600060208201905061169860008301846114e2565b92915050565b60006040820190506116b360008301856114e2565b6116c060208301846114e2565b9392505050565b60006060820190506116dc60008301866114e2565b6116e960208301856114e2565b6116f66040830184611674565b949350505050565b600060408201905061171360008301856114e2565b6117206020830184611674565b9392505050565b600060208201905061173c60008301846114f1565b92915050565b600060408201905061175760008301856114f1565b6117646020830184611674565b9392505050565b600060208201905081810360008301526117858184611500565b905092915050565b600060208201905081810360008301526117a681611539565b9050919050565b600060208201905081810360008301526117c68161155c565b9050919050565b600060208201905081810360008301526117e68161157f565b9050919050565b60006020820190508181036000830152611806816115a2565b9050919050565b60006020820190508181036000830152611826816115c5565b9050919050565b60006020820190508181036000830152611846816115e8565b9050919050565b600060208201905081810360008301526118668161160b565b9050919050565b600060208201905081810360008301526118868161162e565b9050919050565b600060208201905081810360008301526118a681611651565b9050919050565b600081519050919050565b600082825260208201905092915050565b60006118d482611a09565b91506118df83611a09565b9250827fffffffffffffffffffffffffffffffffffffffffffffffffffffffffffffffff0382111561191457611913611a78565b5b828201905092915050565b600061192a82611a09565b915061193583611a09565b92508261194557611944611aa7565b5b828204905092915050565b600061195b82611a09565b915061196683611a09565b9250817fffffffffffffffffffffffffffffffffffffffffffffffffffffffffffffffff048311821515161561199f5761199e611a78565b5b828202905092915050565b60006119b5826119c8565b9050919050565b60008115159050919050565b600073ffffffffffffffffffffffffffffffffffffffff82169050919050565b600074ffffffffffffffffffffffffffffffffffffffffff82169050919050565b6000819050919050565b60005b83811015611a31578082015181840152602081019050611a16565b83811115611a40576000848401525b50505050565b60006002820490506001821680611a5e57607f821691505b60208210811415611a7257611a71611ad6565b5b50919050565b7f4e487b7100000000000000000000000000000000000000000000000000000000600052601160045260246000fd5b7f4e487b7100000000000000000000000000000000000000000000000000000000600052601260045260246000fd5b7f4e487b7100000000000000000000000000000000000000000000000000000000600052602260045260246000fd5b600080fd5b6000601f19601f8301169050919050565b7f5061757361626c653a206e6f7420706175736564000000000000000000000000600082015250565b7f4f776e61626c653a206e6577206f776e657220697320746865207a65726f206160008201527f6464726573730000000000000000000000000000000000000000000000000000602082015250565b7f5061757361626c653a2070617573656400000000000000000000000000000000600082015250565b7f6465706f736974206578636565647320616d6f756e74206e6565646564000000600082015250565b7f4f776e61626c653a2063616c6c6572206973206e6f7420746865206f776e6572600082015250565b7f496e76616c69642072657061796d656e7420616d6f756e740000000000000000600082015250565b7f70726f6a65637420616c72656164792072657061696400000000000000000000600082015250565b7f5265656e7472616e637947756172643a207265656e7472616e742063616c6c00600082015250565b7f636f6e747261637420686173206e6f74206265656e20726570616964206f722060008201527f7573657220616c726561647920636c61696d65642066756e6473000000000000602082015250565b611ce1816119e8565b8114611cec57600080fd5b50565b611cf8816119bc565b8114611d0357600080fd5b50565b611d0f81611a09565b8114611d1a57600080fd5b5056fea26474726f6e5822122017c73c94f3af0d24a58d7f3b87b8e5f5ac0ebd328b8887f56425512b2262f99264736f6c63430008060033a26474726f6e58221220499954292dee2bbf953ad69b08e113e6b1adac1b8708ef834968b44a671eb7f764736f6c63430008060033",
	"source": "// SPDX-License-Identifier: GPL-3.0\n\npragma solidity ^0.8.0;\n\nimport \"@openzeppelin/contracts/security/Pausable.sol\";\nimport \"@openzeppelin/contracts/access/Ownable.sol\";\nimport \"@openzeppelin/contracts/security/ReentrancyGuard.sol\";\nimport \"./Project.sol\";\n\ncontract Deployer is Pausable, Ownable, ReentrancyGuard {\n    mapping(string => address) private projects;\n    address private token;\n\n    constructor(address _token) {\n        token = _token;\n    }\n\n    function deployProject(string memory projectId, uint _amount, uint _repay) public onlyOwner returns (address) {\n        Project project = new Project(projectId, _amount, _repay, token);\n        address contractAddress = address(project);\n\n        projects[projectId] = contractAddress;\n\n        return contractAddress;\n    }\n\n    function withdrawBalance(address _from, address _to) public onlyOwner returns (bool) {\n        Project _project = Project(payable(_from));\n        return _project.ownerWithdrawBalance(_to);\n    }\n\n    function projectAddress(string memory _projectId) public view returns (address) {\n        return projects[_projectId];\n    }\n\n    function pause() public onlyOwner {\n        _pause();\n    }\n\n    function unpause() public onlyOwner {\n        _unpause();\n    }\n\n    function emptyBalance() public onlyOwner {\n        payable(msg.sender).transfer(address(this).balance);\n     }\n\n    receive() external payable {}\n}",
	"sourcePath": "/Users/iemarjay/Projects/me/myFend/tron/contracts/Deployer.sol",
	"compiler": {
		"name": "solc",
		"version": "0.8.6+commit.0e36fba0.mod.Emscripten.clang"
	},
	"schemaVersion": "2.0.1",
	"updatedAt": "2023-04-03T23:16:14.337Z"
}